:040000006F30E07805
:1000040000000000000000001E320000203200004A
:100014000000000034810200000000000000000025
:10002400348102008C370000000000000000000052
:100034008C370000000000008C3700000000000036
:100044008C3700008C3700008C3700008C370000A0
:100054008C3700008C3700008C3700008C37000090
:100064008C3700008C3700008C3700008C37000080
:100074008C3700008C3700008C3700008C37000070
:100084008C3700008C3700008C3700008C37000060
:100094008C3700008C3700008C3700008C37000050
:1000A4008C3700008C3700008C3700008C37000040
:1000B4008C3700008C3700008C3700008C37000030
:1000C4008C3700008C3700008C3700008C37000020
:1000D4008C370000E0240000E8240000F024000035
:1000E4008C3700008C3700008C370000B4270000E8
:1000F4008C3700008C3700008C3700003032000051
:1001040054AF02008C370000F82400008C37000044
:100114008C3700008C370000000000000000000055
:1001240000000000000000000000000000000000CB
:0C013400000000000000000000000000BF
:1001400015C22A8385466367B500FD561307F6FF7F
:100150003A93BA9583830500230073007D16369386
:10016000B6956DFA82802A8311C62300B3007D16EE
:10017000050365FE82802A8309CA83830500230064
:1001800073007D16050385056DFA8280411106C650
:10019000EF20107DEF20306C492AEF207011EF1016
:1001A0009078EF20B051EF80825CC5BF9397050136
:1001B000C18763D20702411122C406C62E84EF8094
:1001C000A20319C1EF306067A167B2403345F40064
:1001D00022444101828001458280011117050000FF
:1001E000130505FD06CEEF40E00F97070020238F93
:1001F000A7E685453705001802C002C202C402C640
:10020000EF30202A0545EF30E02D0545EF30801511
:1002100013051006EF30602A65DD0145EF3000124E
:1002200013050020EF3040150545EF30A015EF30E5
:1002300060390545EF30E036EF30C0380145EF302A
:100240004034EF302038FD573EC2B747E80393876C
:1002500007E83EC40A85973700009387A72C3EC065
:10026000EF40A03D11C101A0F240056182801D71E7
:10027000130600048145080886CEA2CCED3597B759
:1002800002009387A7D623A8F186B7270240D85744
:10029000B7060090FD16758FD8D7D857B70600302F
:1002A0002800558FD8D7D857B70600030544558F77
:1002B000D8D7EF20707897070020938727F43EC89F
:1002C0008967938707C0FC82ED472310F1029547A9
:1002D000A30FF1008567938797C02312F1029167FE
:1002E000938707E82317F1029307803E2318F10252
:1002F000A2470808230181023ED43C862316F1025E
:10030000EF40000211C101A0A28513050004EF30E7
:100310004016B7E700E03707008023A2E710F64059
:1003200023A48710664425618280411106C6813767
:100330006D35EF106024EF200073EF203035EF10A3
:10034000D01DEF107007B24041016F20802F19C5FA
:10035000231305000CC152A123140500828009C596
:1003600023130500231405008280AA8715C91041B4
:100370007D5505CAD62305476375D702FA230507BD
:1003800042074183B336D700B306D040758F962716
:100390006389E600F623014536960CA2FAA3828013
:1003A0007D558280AA8715C9184185C91DC772214C
:1003B00016257D556304D6029627014536971823E6
:1003C00098A19A27D623050742074183B336D70061
:1003D000B306D040758F9AA782807D55828079714F
:1003E00006D622D426D24AD04ECE85CD1DC9AE84A3
:1003F000AA8901441319040113590901637BC90037
:10040000B38784008C234E8532C685373246050477
:1004100075D1B25022549254F2494A85025945612D
:1004200082800149FDB7797106D622D426D24AD0FE
:100430004ECE9DC915C9AE84AA8901441319040181
:1004400013590901637AC900B38584004E8532C609
:10045000913F324605047DD1B25022549254F24964
:100460004A850259456182800149FDB7614681454F
:100470001725002013058598FDB1894763ECA70077
:100480000E0597270020938767973E952320050048
:1004900023220500828011C93A21C167F91713058B
:1004A00010026306F7000145828013051002828066
:1004B000DD4763EAA7009777020093872748AA974A
:1004C000038507008280130530028280411122C417
:1004D0004AC0C14606C626C22A872E893284B687FC
:1004E00063E3C600B28793940701414681453A858C
:1004F000C180953911C4630509002686CA85A539CE
:10050000B240224402492685924441018280011171
:100510006C8450855486AA853400194713066008F8
:10052000454506CEA3050100A3060100EF20B02D2E
:10053000F240056182800171232A911E2328211F28
:10054000232E111E2E89232C811E9305401EAA8462
:10055000AE8763E3E500BA871394070170847C8556
:10056000418011C789C62286B685680029311307E4
:100570004400420734004A86A68541834545EF2062
:1005800090288320C11F0324811F8324411F032936
:10059000011F130101208280797122D46C842A8486
:1005A0007085BA853E86080806D65486A3060100E3
:1005B000313F48873400A28561471306200845452E
:1005C000A3070100EF203024B250225445618280FD
:1005D000797122D46C842A847085BE85428608088D
:1005E00006D654865887A3060100CD35C887340047
:1005F000A2856147130630084545EF20D020B25050
:10060000225445618280797122D46C842A84508579
:10061000B6853A861305E10006D6A30501007D35AF
:1006200048863400A2855947130640084545A3066D
:100630000100EF20501DB2502254456182800171AB
:10064000232A911E232E111EAA84232C811E1305FA
:10065000201EAA876363E500BA87139407016C84A0
:100660005085A30501007C86418019C791C622866A
:10067000B6851305E1000136130764004207340014
:10068000A6854183130650084545EF20D0178320E7
:10069000C11F0324811F8324411F13010120828075
:1006A000011122CC06CE23A407008EA3B6A398B7CF
:1006B00023A20700328401473686C94581463EC6DB
:1006C00032C4EF807038B2472246C8C319E1CD4723
:1006D00001E611C019E68147F24062443E8505619A
:1006E0008280A285493CC5BF411122C41306A002E5
:1006F0002A848145171500201305C57106C6A53447
:1007000097070020A384879617160020130686708B
:1007100085477CA6F956B7071800B6971CCA8947C3
:100720005CAEB24022445D4736A25AA276AE1AB2FF
:1007300041018280894763EBA704411126C24AC068
:10074000AA843949B387240322C417140020130450
:10075000646C06C62E85A297AEA3EF40A07C11E183
:100760005D45B38424030D47B3079400CAA32393C4
:10077000070098B3B2402244239407002395070052
:100780002396070092440249410182808280894772
:1007900063E8A702B9473305F5029717002093874E
:1007A00067677957AA97BAA35D47A3800700DAA3C2
:1007B000239307002394070023950700239607003F
:1007C0008280894763ECA700B9473305F502971784
:1007D000002093872764AA9788338280014582800E
:1007E000411122C406C626C24AC08947014463EAB1
:1007F000A700B9473305F5021714002013048461DC
:100800002A9422854939AA8439E57C20A1EB9705F1
:10081000002083C5B5852A20054923032401EF80E4
:10082000300709C9230304002244B240924402491C
:100830004101BDB99547A3032401231404002315E6
:100840000400231604001CB0B2402244024926854D
:1008500092444101828093041002FDB7A944EDB790
:10086000011122CC06CE26CA8947014463EAA700BB
:10087000B9473305F502171400201304A4592A942C
:10088000228532C62EC40139AA8421EDA245324602
:100890009387F5FFC207C18363F8C7047C20B9E7DB
:1008A00097F6FF1F83C6967C2A2085477CA0EF80A1
:1008B000807BA245324601C9230304006244F24012
:1008C000D2440561F5B689477CB0994723140400EA
:1008D0002EA452A41CB0F24062442685D244056185
:1008E000828093041002C5BFA144F5B7A944E5B7BF
:1008F000011122CC06CE26CA8947014463EAA7002B
:10090000B9473305F502171400201304A4502A94A4
:10091000228532C62EC44136AA8421EDA245324634
:100920009387F5FFC207C18363F8C7047C20B9E74A
:1009300097F6FF1F83C696732A2085477CA0EF8019
:10094000A06DA245324601C9230304006244F2406F
:10095000D2440561B1BE8D477CB09D47231404008D
:100960002EA452A41CB0F24062442685D2440561F4
:10097000828093041002C5BFA144F5B7A944E5B72E
:10098000011122CC4AC806CE26CA89472E890144C5
:1009900063EAA700B9473305F502171400201304D2
:1009A00064472A942285C53CAA8439E9630D090469
:1009B0007C20A1EF17F6FF1F0346566B2A208547C0
:1009C0007CA06C0023162101EF80407C09C9230321
:1009D00004006244F240D24442490561D1BC9147CF
:1009E0007CB0A5472314240123150400231604001A
:1009F0001CB0F240624442492685D244056182809F
:100A000093041002FDB7A144EDB7A944DDB73971D5
:100A100022DC4AD806DE26DA4ED689472E890144E2
:100A200063EAA700B9473305F50217140020130441
:100A3000643E2A94228536C632C4B13CAA842DED88
:100A4000630F09067C20B5EFB24622462A2085476F
:100A50007CA001475C08CA85A13101CD23030400B5
:100A6000AD44F25062544259B2592685D2542161A4
:100A7000828017F6FF1F0346765F2A204C08EF801E
:100A80002071AA8919CD480823030400C945EF80C5
:100A900090396254F250D25442594E85B259216174
:100AA00001BC95477CB0A9472314240123150400F9
:100AB000231604001CB075B7930410025DB7A1445F
:100AC0004DB7A94479BF397122DC4AD84ED606DE2B
:100AD00026DA89472A89AE89014463EAA7003944A6
:100AE00033048502971700209387C7323E942285EE
:100AF00036C632C44D32AA8421ED638E09047C20AF
:100B0000A9EFB24622462A205C080547CE85493E19
:100B100039E52A204C08EF8000692A8409CD48086D
:100B2000C945EF80503022856254F250D254425968
:100B3000B2592161B5BAB5460146CE854A85C13A5A
:100B4000F25062544259B2592685D25421618280B2
:100B500093041002F5B7A144E5B7A944D5B7AD4455
:100B6000C5B7797122D44AD006D626D24ECE89474F
:100B70002E89014463EAA700B9473305F50217142B
:100B80000020130424292A942285EFF0DF90AA8400
:100B90003DED630109087C20C1E32A2085477CA044
:100BA00001475C00894613860186CA85D53C01CD84
:100BB00023030400AD44B25022540259F249268561
:100BC00092544561828017F6FF1F0346364A2A2059
:100BD0004C00EF80005DAA8905C148002303040092
:100BE000C945EF8050242254B250925402594E8588
:100BF000F24945616FF0DF8B99477CB0AD47231414
:100C0000240123150400231604001CB06DB79304BF
:100C1000100255B7A14445B7A94471BF797122D4D8
:100C20004AD006D626D24ECE89472E89014463EAA1
:100C3000A700B9473305F502171400201304841DDB
:100C40002A942285EFF03F85AA843DED63010908CF
:100C50007C20C1E32A2085477CA001475C008946AF
:100C60001386C185CA852D3C01CD23030400AD4404
:100C7000B25022540259F24926859254456182802D
:100C800017F6FF1F0346963E2A204C00EF80605166
:100C9000AA8905C1480023030400C945EF80B018A4
:100CA0002254B250925402594E85F24945616FF078
:100CB0003F809D477CB0B1472314240123150400D5
:100CC000231604001CB06DB79304100255B7A1445D
:100CD00045B7A94471BF797122D406D626D2894777
:100CE000014463EAA700B9473305F5021714002051
:100CF000130444122A9422852EC6EFF0CFF9AA8459
:100D000039E9B245D94763FBB7047C20B1EB17F64C
:100D1000FF1F0346B6352A208547EC867CA06C0869
:100D2000EF80A03C09C9230304002254B25092541E
:100D300045616FF0EFF7A1477CB0914723140400A1
:100D400023150400231604001CB0B250225426853B
:100D500092544561828093041002C5BFA144F5B747
:100D6000A944E5B7894763EEA744638C054439710C
:100D700026DA06DE22DC4AD84ED652D456D25AD0D3
:100D80005ECEDC211307F007AA846397E702B94718
:100D9000B304F5029A25971700209387A707A69713
:100DA000DAA3F2506254D2544259B259225A925A9A
:100DB000025BF24B216182806D476393E7026254CC
:100DC000BA25D4459225F250D2544259B259225AEA
:100DD000925A025BF24B9305700821616FF0AFF5F8
:100DE00075472E846396E702BA25D445922593056C
:100DF0008008EFF04FF42A206254F250D254425946
:100E0000B259225A925A025BF24B21616F4040164E
:100E100039473307E502171900201309A9FF4A973C
:100E20007423C1D278331D469306F7FF93F6F60F6D
:100E3000E369D6F617760200130646AE8A06B29626
:100E40009442B29682864547639CE7089E25B1DBB3
:100E500003DBA5008D47E3F667F5114783A9C500BD
:100E6000814B6308EB009307CBFF939B070193DB58
:100E70000B01B94AB38A5403014ACA9A1A2414309E
:100E80006366EA02938766FE99C3A51699FAB94785
:100E9000B387F402CA9721472393070023940700DE
:100EA000239507002396070098B3E5BD83C5190075
:100EB00003C5090003C6390003C82900A205C98D6E
:100EC00003C50A002206050A13874900DE87336638
:100ED0000601420AEFF04FECDA99135A0A0179BF82
:100EE0000547E390E7EC9825C147E31CF7EAB947CB
:100EF000B304F502D4258147014701468145CA94D0
:100F00008820EFF06FE9A1472393040023940400A5
:100F100023950400239604009CB061B52547639D8A
:100F2000E70C9E25E38F07E603DBA5009147E3FA74
:100F300067E7954783A9C50001486307FB001308CD
:100F4000BBFF420813580801B94AB38A5403014A47
:100F5000814BCA9A1E2414306364FA04C1E263858B
:100F60000B083944338484024A945224E3F1CBF2CF
:100F700093851B0097F6FF1F83C6560F2A20C205D4
:100F8000C181EF80400EE30E05E0A147231304006A
:100F90002314040023150400231604001CB011B50B
:100FA00083C5190003C5090083CB490083C73900F5
:100FB000A20503C72900C98DA20B03C50A00B3EB24
:100FC000FB005E8693875900050A42C6420AEFF08D
:100FD0002FE03248DA99135A0A01ADBFE947E38896
:100FE000F6EADD47E385F6EAB947B387F402CA9724
:100FF000DE27E3E8FBDA61BD0547E394E7DA83C95E
:101000008500A147E39FF9D8B947B304F502D42579
:1010100001488147014701468145CA948820EFF085
:101020002FDB2393040023940400239504002396CC
:101030000400A3803401B5B315476392E70A9E25E7
:10104000E38107D6BC2505476387E7000947E3909E
:10105000E7E4494B11A0114BB94AB38A5403130773
:10106000EBFF032AC40042078149814B4183CA9A9E
:101070001E24103063E8F90221EEE3870BF63944B1
:10108000338484024A945224E3F3CBE093851B001B
:1010900097F6FF1F83C696FD2A20C205C181EF7017
:1010A000B077D5B583451A0083470A0003C50A0007
:1010B000A205B3EBF50093062A00DE8585093AC642
:1010C000C209EFF04FD432475A9A93D909014DB76C
:1010D000E947E30EF6DADD47E30BF6DA31B7054709
:1010E000E391E7CC98259147E31DF7CAB947B304CC
:1010F000F502D025014781468145CA948820EFF04A
:101100008FD011B52D47639EE700B947B304F502B0
:101110009A25D4459031CA948E248820EFF02FD29E
:10112000DDB30547E39FE7C69825A947E31BF7C64C
:10113000B947B304F502D0250147AE258146CA94CC
:10114000E9BFCD466393D7026D17938781851377E7
:10115000F70F3E97B947B304F50290311423CA94B0
:101160008E248820EFF0AFBA79BB8546E39BD7C2C7
:101170009425C947E397F6C26D1793878185137746
:10118000F70F3E97B947B304F502D0251423AE25D7
:10119000CA94C1BF0D476399E700B947B307F50289
:1011A0009A25CA97DAA3C5B90547E39CE7BE9825F7
:1011B0008947E318F7BEB947B307F502B304F9004E
:1011C00099B382809716002083C686C80947854751
:1011D000638FE6009716002083C626C86389E60061
:1011E0009717002083C707C8F91793B71700171779
:1011F0000020034717C511CBFD1713F7E7FF1107B1
:1012000097170020A38EE7C282801716002003469E
:1012100046C389460D47E3F5C6FEB307F0407D8F10
:101220000507F9BF9717002083D767C26383A7021A
:1012300017170020035747C28547630AA7001717EF
:101240000020035707C2FD576313A70089473E8557
:1012500082808147EDBF8280797122D406D62A84AC
:101260002EC6C937FD576301F502B2451147740810
:10127000230FB100130690089375F50F4545E086DE
:10128000A30F0100EF103058B25022544561828004
:10129000797106D622D43AC22309F1002A842EC6D7
:1012A00036C4A308C1002308A100EFF08FD1B245D6
:1012B000A246A309A100EC82924519462808230BF7
:1012C000D100A30B0100EFE01FEB1408A285394702
:1012D000130610084545EF101053B25022544561D3
:1012E00082806304051E3C21397122DC06DE26DA89
:1012F0004AD84ED652D435472A84636CF700976695
:101300000200938626651397270036971843369771
:10131000028749476380E702F2506254D25442592F
:10132000B259225A21618280854717170020A309EC
:10133000F7B0DDB73546542038309305540063923A
:10134000C7068307B40044240329040199494E8643
:1013500048082308D100A308E1002309F100A309EC
:101360009100130A0101EFE01FE163020904A1C02B
:1013700013F4F40F63F4990013F4F90F2286CA856D
:101380001305A101EFE03FDF9547A28963F39702C0
:101390004147D2861306000881453A85EF10B046D2
:1013A000A5BF8307F400043C0329C40145B7814964
:1013B00001441305A4001375F50F19463306364191
:1013C00081455295EFE03FDAE1B797170020A38AF5
:1013D00007A66254F250D2544259B259225A21619E
:1013E000D5B31C319714002083C4A4A597190020FD
:1013F000938909A50949B1E76361990429453385B2
:10140000A4023A241946B387A90023882701FAA722
:10141000383049054E9598BB13074400BA853AC643
:10142000EFE07FD52E242685EFF0CFB03C30324759
:1014300014302E244A862685A13DFD572381F900CC
:1014400049BFE36C99FE2949338924032685338AF1
:10145000290123080A00EFF08FB313072901C165A2
:1014600083471A0114304E970146F915E9B74A210E
:10147000553BFD57AA84E301F5EA1375F50F2AC61B
:10148000EFE0BFFF3245EFF08FB0A947B387F4021A
:10149000971400209384C49A74204E20324501464C
:1014A0001387270133099700BE949C384A87CD33B0
:1014B000F957FEA423880400231009002311090012
:1014C00023120900A388040029B7828081460146BF
:1014D0006F10F02F93970501C18763DE070201119A
:1014E00022CC4AC84EC652C406CE26CA2E842A8AA8
:1014F0001309000BFD595285EF601250AA8411EDBB
:10150000A167F2403345F4006244D2444249B249F3
:10151000224A05618280014582809C2063902703D6
:10152000AA20093363073501A6851375F50FEFF07F
:101530007F83CC2013858400EF80E00E2685EF208A
:10154000C02F55BF05C99DC51C2189461305000242
:101550001CA263E2F6022947B387E70217170020AF
:101560001307078E13051002BA979C2B6395D700BB
:101570000145828021458280411122C41714002038
:101580001304048C1306C0028145228506C6EFE0D1
:101590009FBDFD573CA0930730105EA0B707100019
:1015A000C10717050000130525F31CC4EF20905355
:1015B000F9577EA41EAC3EB008A023080400230DFA
:1015C000040023020402EFE07FEA0820EFF0CF914D
:1015D000EF204271EF80B0300820EF80A05C0E2435
:1015E0001545EF50601F2E241945EF50E01E85650C
:1015F000938505960945EF50201ED1451D45EF50B6
:10160000A01D930540062145EF50001D930540069F
:101610003545EF50601C082017F6FF1F1306869E05
:101620008145EF007200A3000400B2402244410152
:1016300082805C354547FD1793F7F70F636CF744DD
:1016400017670200130787348A07BA979C4379719A
:1016500022D4BA9726D25AC806D64AD04ECE52CCF9
:1016600056CAB2842E842A8B8287B70701019387DA
:1016700037103EC09707002083A7077DA1463EC2D2
:101680000A865A858145EF109014B2502254925424
:101690000259F249624AD24A424B4561828081C571
:1016A0009337860099C3A145B5A89C218C31A2052A
:1016B000DD8D970700202399B7783C303820A207AA
:1016C000D98F170700202312F7785C305820A20723
:1016D000D98F17070020231BF7767C2017070020DF
:1016E0002302F7767C3017070020A30DF7742147FB
:1016F00081476303E6001C241545170700202304D7
:10170000F774EF50600D9705002083D505741945D7
:10171000EF50800C9705002083D545730945EF50A5
:10172000A00B81452254B25092540259F249624AA8
:10173000D24A5A85424B456151BB9707002083C767
:10174000577099C3A945F9BF170600200346A66F35
:101750009705002083C5156F170500200345856E8A
:10176000EF00427565F1854717070020A30BF76C62
:10177000EFF05FA57DB7EF006276A54545F59707C9
:101780000020A380076CEDB793348600E39D04F03E
:10179000E38B05F003C90500894763F5270193052D
:1017A000000249B7170700200347A769170A00205E
:1017B000130A0A69E3F8E7F8A94AB3045903B3091D
:1017C0009A0083C70901BDFF4A85EFE01FCB4A8518
:1017D000EFE0FFFB854723012A012388F9001C3035
:1017E0009386240119469305240033854601A38876
:1017F000F900EFE05F981030AA8681450145EF00BF
:1018000042683DD5FD572301FA00238809001DBF1A
:10181000A6850A8622853D33AA85E31505F0188042
:10182000A9473307F7029707002093876761BA97A4
:10183000EA27EF20E248DD4793053002E3E4A7EE14
:101840009767020093870719AA978C23E1BDE38C61
:1018500005E4E30A06E488218947E3E2A7F4294482
:1018600033048502170900201309895D4880B304F9
:1018700089009C284904DC809C385C81EFE07FF47F
:10188000C881FE241946B305890028007C822313F1
:101890000100EFE05F8EB946E5B3A6850A86228592
:1018A0005531AA85E31005E80880EFE07FF3AA85AB
:1018B00095BDA6850A8622857131AA85E31405E6C1
:1018C0009147A145E3F097E658203C2030300C309A
:1018D00008802207A207598EDD8DEFE07FF8C1BF97
:1018E000A6850A862285B939AA85E31D05E29147B6
:1018F000A145E3F997E258203C2030300C300880B5
:101900002207A207598EDD8DEFE09FFE4DB7A68519
:101910000A8622850539AA85E31605E08947A1458F
:10192000E3F297E03C200C300880A207DD8DEFF059
:101930002F85B5BFA6850A8622852931AA85E3139E
:1019400005DE8947A145E3FF97DC3C200C309386F8
:10195000D4FF0880A207C206C18213063400DD8DC1
:10196000EFF0EF8AA9B7A6850A862285E13EAA850F
:10197000E31A05DA8947A145E3F697DA3C200C30F3
:101980009386D4FF0880A207C206C18213063400E2
:10199000DD8DEFF04F9321BFA6850A8622855D3647
:1019A000AA85E31105D88947A145E3FD97D63C20D8
:1019B0000C300880A207DD8DEFF0AF9ACDBDA68573
:1019C0000A8622854136AA85E31E05D48947A145AA
:1019D000E3FA97D43C200C300880A207DD8DEFF0AD
:1019E000EFA3F1B5A6850A862285A93EAA85E31B49
:1019F00005D28947A145E3F797D23C200C300880F7
:101A0000A207DD8DEFF02FAD5DB5A6850A86228594
:101A1000EFF05FB3AA85E31705D01880A947330715
:101A2000F702970700209387A741BA97EA27EF208C
:101A3000622811B5A6850A862285EFF0BFB0AA8577
:101A4000E31205CEA145E3FF95CC0880A9471824F1
:101A50003305F502742050202C209707002093872F
:101A6000273E034E74000343540083483400034868
:101A700014002207AA97EA27A2062206A2053367C6
:101A8000C701B3E6660033661601B3E50501EF2032
:101A9000A22255B39D454DB1416781467D1717661A
:101AA00002001306A6C193970601C18363E4B70041
:101AB0003A858280B307D5009C23850693F7F70FFC
:101AC000A207B98F13D78700060732971A2393F717
:101AD000F70FA2073D8FC1BF11C17DBF828079C5BD
:101AE000797106D622D49307A0051CA1930750FA5A
:101AF0001CB185473CA13C393829E145A207D98F63
:101B00003387B7009356870054B1B7A60118938660
:101B1000A65536C4788658A1783174212CB1220795
:101B2000558F58872183D887183514252A84220792
:101B3000558F2308E1002183A308E10038252309FC
:101B4000E1003835A309E1005825230AE1005835A2
:101B5000A30AE100783574252207558F230BE10095
:101B60002183A30BE10018391429230DF10022076A
:101B7000558F230CE100A1832183A30CE100A30D69
:101B8000F100231E01007C3978292800A207D98F93
:101B9000230FF100A183A30FF100FD3D48A821818F
:101BA00048B8B25022540145456182807D558280FB
:101BB000814601466F10A04123AE018623A0018813
:101BC0008547238EF186238FF1869307403023903B
:101BD000F1889307401723AAF186C167938747309E
:101BE00023ACF1868280AA872E83B28635CD382534
:101BF00005486319070154256385E600A1453E8524
:101C000045BFC9A289486318170154251147E397B6
:101C1000E6FE283561A9414E6317C7015825E31F29
:101C200007FD6FF01FA119E3383519C39945C1BFEE
:101C30005025E31506FD5835630E17019D456301D8
:101C4000B7026311C702DDFAA1461386C187814539
:101C50006F10E037C5F6A146138641878145CDBF99
:101C60001A86EDBF9D4561BF828009C513B8450046
:101C700063050800A1473E8582800348150083481C
:101C8000050022083368180183482500C208B3E81C
:101C90000801034835006208336818012320060153
:101CA000114863970505214823800601230007009A
:101CB0000548238007011C42D5DF9C228546E11799
:101CC00093F7F70FE3E8F6FA18238947E3E4E7FA16
:101CD0007D181378F80FE3EF06F91D478147E37C81
:101CE000B7F87C31B337F000B307F040F98F61B734
:101CF00003484500238006011548E38905FB034896
:101D00005500230007011948E38405FB03486500DB
:101D10004DB7814601466F10802B011105664EC6F6
:101D20001306068D81451705002013052514F1695A
:101D300022CC26CA4AC852C456C25AC006CE17047C
:101D400000201304A412EFE00FC217690200130968
:101D5000E9B7814493890920214B854A114A834779
:101D6000190004A09305C4011CB0834709001305A2
:101D70004400232E3421B337F0003CA02308642311
:101D8000A30804222309542313060010EFE02FDCDC
:101D900085049305C411130504011306001093F480
:101DA000F40FEFE0CFDA130444235109E39944FB25
:101DB000F2406244D2444249B249224A924A024B1A
:101DC000056182805D7186C6A2C4A6C2CAC04EDE0D
:101DD00052DC56DA20358D4763E5870493044023AF
:101DE000B30494021709002013094908B3079900A6
:101DF00003CA270063010A048349D5002D4793874E
:101E0000F9FF93F7F70F6361F72A176702001307CB
:101E1000E7BD8A07BA979C432E88AA8ABA97B285EB
:101E20008287A1452644B64096440649F259625A33
:101E3000D25A6161F9BDC145F5B701C6A1455685C4
:101E4000D5B793074023B307F402B146CA979E2340
:101E5000230F4101A30F0100FC86B707FF00938702
:101E6000F70F3ED0930710103ED27008D1A079F63C
:101E700093074023B307F402514797660200938605
:101E8000E6A43715014093050580CA979C23338744
:101E9000E70236971223F086504301476301B602EA
:101EA000930505C00547630CB6004E876309A6007D
:101EB000930505400D476304B6001307F00F230F89
:101EC000E10051473387E702B715014013860580CB
:101ED00036975847630AC706138605C06308C706C6
:101EE0006309B700138605408D496304C700930951
:101EF000F00F5147B387E702A30F31017008814506
:101F0000BE969A26B1462310E10217670200130716
:101F1000E79CBA979E231707002013072716231163
:101F2000F10293074023B307F402BA97DC473ED28D
:101F30005685EF10C009B640264496440649F2592A
:101F4000625AD25A61618280814965B7854955B725
:101F50009307B1011307A10193069101700842850F
:101F60002933AA85E31D05EC137ABA0F8547A545E9
:101F7000E317FAEC93044023B3049402034AB1013B
:101F8000F245034691018346A1018947528736C62F
:101F900032C42EC2CA948820BCA0512E0DE59245B1
:101FA0002246B24623AEB4202388C422A388D4227A
:101FB0002389442393074023B307F402CA9723815C
:101FC0003701AA85ADBD9549F5B793074023330482
:101FD000F4024A9408204D29138544004A95EFE005
:101FE0000FB8138504014A95EFE06FB785473CA011
:101FF0008145B1B59307B1011307A1019306910182
:10200000700842859D31AA85E31B05E28D47C545D1
:10201000E317FAE2930740233304F402034A9101E1
:102020008349A1018344B101F245CE8626875286B9
:102030002EC24A940820E52C49F5924523084423F2
:10204000A3083423232EB420230994229DBFE31731
:1020500006DE930740233304F4029707002093879A
:10206000E702D146A29798434A943ACED8433AD051
:1020700098473AD2DC47230641033ED483470423E2
:10208000A306F102834714232307F1028347242385
:10209000A307F102D9BB138544004A95EFE02FACAA
:1020A00081BF13850401D5BF9D45ADBB0D48636954
:1020B000A80693074023B307F502011197060020F5
:1020C0009386C6DA4AC806CE22CC26CA4EC64147F7
:1020D0003389F60083482900638C080245476399D9
:1020E0000803C107AA893385F6003284EFE02FAFD9
:1020F000AA84637985008327C9223307A440BA974D
:102100002326F9224E85752E354763139400014727
:10211000F2406244D2444249B2493A850561828024
:1021200041473A8582805971A2D4A6D2CAD0CECE78
:1021300086D697040020938464D301448D491149C5
:10214000BC2063983703130600040C081385440071
:10215000EFE06FADAA8611CD2AC61008A285094509
:10216000EF00F06C19C583A78422B246B69723A46A
:10217000F42205041374F40F93844423E31224FD22
:10218000B650265496540659F649656182808D46AC
:1021900063E7A60493074023B307F502411117072D
:1021A00000201307A7CC22C406C63304F700302052
:1021B000631DD60091073305F700EFE00F9B11C9AF
:1021C0008327842285072324F422B240224441013C
:1021D00082808327042285072320F422FDB7828092
:1021E0008D4763F9A7007D5582807D55B24022441A
:1021F0004101828093074023B307F50241119706FE
:1022000000209386A6C622C406C63384F600382072
:10221000751761FFF9D9C1073385F600EFE08F9894
:1022200069F58327442285072322F422C1B70D478D
:102230006368A702D1473305F502975702009387D9
:10224000E768AA979C330145FD1793F6F70F636A79
:10225000D7009207175502001305457C3E958280F2
:102260000145828017570200130747668147914650
:10227000102301C61033630DA60085075107E399AB
:10228000D7FE8280014693057072EF10C04181A88D
:10229000011126CA93F4F70F268522CC06CE413FC2
:1022A0002A8415CD084093055052EF10404401C9CF
:1022B0000840EF1040439375F50F2685C93D08404F
:1022C00093057072EF10A04219C99305F10026859D
:1022D000013FAA870840DDF78C87EF104040F240AD
:1022E0006244D2440561828037170140930707801A
:1022F0006316F500854511456F102019B717014089
:10230000938707C06315F50085452145F5B763152B
:10231000E50085454145CDB7B71701409387074094
:102320006316F500854513050002F9B782808D47D5
:1023300063EAA7141D71A2CCA6CACAC8CEC6D2C46D
:10234000D6C286CEDAC05EDE62DC2A8ABA84B6895C
:102350003289AE8AE93D2A84414563040410D1479D
:10236000B307FA02175B0200130B4B56DA9703AC64
:10237000470083ABC7009C2313371C0093B717009B
:10238000D98F639F070E638D0B0E5C24084485452F
:102390006385070EEF10600F85452E85EF10E00E68
:1023A000628599375E8589378D473ECCD147330AA0
:1023B000FA024C0862855D19F9141339190093B4B7
:1023C00014003209B604529B83578B00FC82E1470C
:1023D0003ECEEF00106983570B014C085E85FC82EE
:1023E00091473ECEEF00F0670810EF100029054737
:1023F000930700606387E900F91993B9190093976F
:10240000A9000840314781452315E1022314F10258
:1024100056D0231601022312210323139102EF1039
:10242000402708400C10EF10001B0840054693059C
:102430005052EF1040270840014693057072EF108C
:10244000802608408545EF10C0245C406800A30644
:1024500001005C8685473EC823070100EF10C02CB1
:102460000145F6406644D6444649B649264A964A4E
:10247000064BF25B625C25618280EF10800229BF0F
:102480004145C5B721458280411106C622C4453366
:102490000DC52A840841014693055052EF10A02033
:1024A0000840930570720146EF10E01F0840224477
:1024B000B240814541016F10C01DB240224441012C
:1024C0008280411106C6A53309C9B24008410546BC
:1024D0009305707241016F10001DB240410182806E
:1024E00005454933730020300945AD3B730020306A
:1024F0000D458D3B730020301145AD337300203006
:1025000097070020239C072E970700202389072E7A
:102510009707002023AA072E9707002023A2072E43
:10252000970700202390072EFD5717070020230C44
:10253000F72CB7070050A38107002398070209472B
:102540002389E702A3890702239A0702238BE70264
:10255000239C07022947238DE7022147A38DE70229
:10256000828001119707002083D7072A22CC170405
:1025700000200354842926CA06CE818FBE84C20758
:102580004AC8C183130700046373F700BA841709AC
:1025900000201309A9261396040193050401418222
:1025A000CA95170500201305651D32C6EFD0BFBCC4
:1025B0003246B707005032942317890086BF03C7FD
:1025C000A7031377C70F238DE702F2406244D2447A
:1025D000424905618280011122CC17040020035476
:1025E000642206CE26CA01ECB707005023980702E2
:1025F00023890702F2406244D24405618280930736
:102600000004228663F387003E86970400209384AB
:10261000E41ECC404206418299C9170500201305EB
:10262000E51932C62EC4EFD01FB53246A245B70712
:10263000005092BB23890702B295118CCCC082A4B2
:1026400055BF4111130600218145170500201305D0
:10265000E51A06C622C426C2EFD0FFB097070020B5
:102660009387C719FD540545A4A7EF00904B8545F6
:102670000565EF0010603704005099471CA0230047
:102680000400930700045CA4B1475CB42307040072
:10269000A307040097070020938747121CC893875D
:1026A00041885CC897070020938747091CCC893D67
:1026B0009D4764A03CA0930790021CA0930710F8CC
:1026C0001CB0B2402244B7E700E03707000823A25D
:1026D000E71092444101828017050020034505124E
:1026E0003335A00082809707002083C7271101455A
:1026F00099C7170500200345751013351500828012
:102700009707002083C7870F014599C71705002049
:102710000345E50E1335150082800DCD011106CE5F
:102720002AC6D137FD571DC1B245214613854188C0
:10273000EFD07FA4854717070020A301F70C21469F
:10274000B7070050D2BB238B07028147F2403E857A
:1027500005618280FD573E8582809387F5FF93B7A0
:102760000720B1C729C5011122CC06CE2E842AC666
:10277000413FFD5705C9B2452286170500201305C4
:10278000E508EFD05F9F97070020239F87069707F4
:102790000020239C07068547170700202301F70622
:1027A000C9338147F24062443E8505618280FD570E
:1027B0003E858280411126C422C6B7040050E02025
:1027C0009377140091C72D3B8547FCA01374E40F49
:1027D00093772400638F070EB7070050F833F43364
:1027E00013770703BD8A639E061C930600036318D4
:1027F000D7181707002023250700170700202313E9
:102800000700A389070209472389E70297060020EA
:1028100083C6C6FA17070020130747FA93F6060681
:1028200099C60D472389E702A389E70271A8970794
:10283000002083C7B7F8A54663E0F6149756020058
:102840009386C6218A07B6979C43B69782879707D7
:10285000002083D7C7F6894613D78700630ED708B1
:102860000D46B7060050630AC7008547630DF70899
:102870002389C602A389C60281A813F6C70F29E2DD
:1028800093F7F70F93962700175702001307871F38
:10289000369793864186B69718439C2317060020E7
:1028A000035626F2B28663F3C700BE869707002060
:1028B00023A8E7F4970700202396D7F4293B29A003
:1028C0002389E602A389E602B70700500947F8A367
:1028D00075989377440091C7B70700501147F8A344
:1028E0006D98418809C4B70700504147F8A33244A6
:1028F000A244410173002030930770021757020071
:102900001307071E61BFC947175702001307C71FE8
:1029100071B79707002083D787EA93F7F707170760
:1029200000202302F7EEB7070050239807022389FF
:10293000070259BF9707002083D767E817070020D1
:10294000230EF7EACDB79707002083C727EB1CA318
:102950009707002023A6E7EA8547170700202313DF
:10296000F7EAA9BF97070020239A07E497070020FA
:1029700023A8E7E88947D5B7B70700505DB59306A8
:102980000002631DD702170700200347C7E793061D
:10299000F00F6308D700B8B3FD57170700202304D2
:1029A000F7E69707002083D7E7E589FBB7070050D4
:1029B0002398070209472389E70239B7A389070249
:1029C00021B785450946639DB60093060002E31DC5
:1029D000D7EE17070020A30307E2238BC702EDB54C
:1029E000E394C6EE1DE79C4713070004BE85C207AB
:1029F000C1836373F700BA85C205C1811705002042
:102A00001305C5D35928B70700502147A38DE70206
:102A100065BD93060002E319D7EA9706002083D626
:102A2000C6DE17070020035727DE63F5E600EFF048
:102A30005FB359BD17070020230307DC239C07025F
:102A40002947238DE70249B5B7071800170700206B
:102A50002326F75C970700202394075C9707002044
:102A600023A607FA828041111306006381451705EA
:102A700000201305A5F906C6EFD0EFEE13060040BF
:102A800097050020938585F917050020130545F863
:102A9000EFD0FF8BB240410145BF2E8689C901C9E5
:102AA000AA85170500201305A5F66FD05F938280D5
:102AB000797122D44AD006D626D2170400201304F6
:102AC000E4F405499305710017050020130545F44A
:102AD000EFD05F8D19C5B25022549254025945610E
:102AE00082801C40639C0714B70718002328F460F9
:102AF0002320240185479706002083D62652908301
:102B00001387160042074183A2962318E4602388A6
:102B1000C640639D2719DD47E3F6E7FA1703002057
:102B200003534330170700200357A7301706002030
:102B30000356C62E231F6460170300200353A32EE1
:102B40009706002083D6C62D170E0020035E6E2D3B
:102B50009708002083D8682D170800200358082DF7
:102B60009707002083D7A72C170500200355452C75
:102B7000970E002083DEAE2A231064621703002024
:102B80000353832A2316E4622967231BC460231C92
:102B9000D461231DD460231EC461231164622312F7
:102BA0001463231304632314F4622315A46213072C
:102BB000A7559705002083C585269704002083C468
:102BC0001426631FE608639D25096147639AE4089C
:102BD000A697C207C1836395D708130700206361D6
:102BE000F708268697050020938545232800EFD017
:102BF0008FD8A6852800231E0100EFE0FFED970780
:102C0000002083D74743639DA7049707002083D7FD
:102C100087412319F460639E97068D471CC01706F1
:102C2000002003562641970500209385A52017050F
:102C300000201305053FEFE01FFB09A81147E39CA7
:102C4000E7EA9707002083D7A73D99E3F53B9DBDB1
:102C5000FD17C207C183231AF460E39507E6FDB7A9
:102C6000170600200356863BE30E06E47D16970503
:102C700000209385B51A170500201305251AEFD0FB
:102C80002FCC9707002083D76739FD172318F460EE
:102C900015BD89471CC01707002003572738970721
:102CA000002083D7C737E36FF7E085BF0947E38488
:102CB000E7FE0D47E398E7E09DB79717002083C72D
:102CC00087B8171700200347C738B337F00019C378
:102CD00093E7270017270020034767B819C393E736
:102CE0004700172700200357C7B7630BF7001727C4
:102CF00000202318F7B68547172700202305F7B6CD
:102D0000828085673E950347A58019CB83478580E0
:102D10007D172305E58085078D8B2304F58071BF22
:102D200082805D7152DC035A410586C6A2C4A6C2E8
:102D3000CAC04EDE56DA1303801E637B4303972717
:102D4000002083D727B2CD8F17270020231CF7B090
:102D50008547172700202308F7B0FD59B6402644C1
:102D600096440649625AD25A4E85F2596161828070
:102D700005632A93834EA3800D4EE362DEFDB28A83
:102D800061462E892A8481453305C100C689834462
:102D9000938042C63EC43AC236C0EFD0CFBC17269D
:102DA00000200356E6AB324882461247A2479305FD
:102DB0001600172500202315B5AA2808231431036F
:102DC000F0872310010323015103A301D102230241
:102DD000E102A302F10223154103EFE05FD0AA89CB
:102DE00001CD9727002083D7E7A7B365F900972780
:102DF00000202399B7A6A9BF130720203387E40238
:102E0000B4840359C10193072700A29796A3B48500
:102E100023922701B6A3B487F6A38356010296A78F
:102E200083562102B6A783564102D6A78356610274
:102E3000F6A78356810296AB8356A102B6AB8356A2
:102E4000C102D6AB8356E102F6ABC64791CB63090C
:102E50000A0069075286BE853305E400EFD0AFB1A2
:102E600093072020B384F4028567A2942390240161
:102E70003E948347948085078D8BA304F480834719
:102E8000A48085072305F4800D3DC9BD0966411165
:102E90001306C6828145170500201305251A06C6AC
:102EA000EFD06FACB240854717270020231AF79A5E
:102EB000172700202309F79A41018280011106CECD
:102EC00022CCEFF07F8101CD9727002083C7A799FF
:102ED00081C7EFF05F8101E9EFF09F8221E1F240CD
:102EE00062440561828085477C849727002083D7D0
:102EF00047972800231701007C859727002083D758
:102F000067967C86EFF07F8161F997270020238CFC
:102F1000079497270020239707947DBF1717002059
:102F200003476792170400201304441197170020E9
:102F30009387C71015C7171500200345A590930761
:102F400020203305F502B307A4008E23090522953E
:102F5000EFF0BF8049F522856244F240056155B328
:102F6000171700200347E70E05EF17270020034738
:102F7000078F35D7172500200345458E13072020DE
:102F80003305E50205676907AA978E2F3A952295C2
:102F9000EFF0AFFC29F5171500201305A50B6DBF49
:102FA000171500200345C50A130720203305E50245
:102FB000AA9783D5C7801305F57F3D052295EFF0CD
:102FC000CFF911FD171500201305058871B715C934
:102FD000011106CE7C310348650036C232C0A2071B
:102FE0003435302533E807015C35AE88094785451F
:102FF0001705002013058504EFF0BFD2F2400561EC
:1030000082807D55828001113AC236C0B287AE8679
:103010002A86814801480D47894517150020130568
:10302000A58206CEEFF0FFCFF2400561828001114C
:10303000114736C232C0AE862A8681480148814790
:10304000BA85171500201305E50006CEEFF07FCDF9
:10305000F2400561828097D7FF1F83A7670137176A
:103060007A0013070720B3D7E70293F7F70F2387F8
:10307000F1881307803EB387E7022396F1888280A8
:10308000B717024098434111B706FFF013671700C6
:1030900098C3D84337060200758FD8C39843B70644
:1030A000F7FEFD16758F98C39843B706FCFFFD1613
:1030B000758F98C3D843B70601FFFD16758FD8C327
:1030C00037079F0098C702C402C69843C166558F50
:1030D00098C385669843718F3AC6224705073AC45C
:1030E000324701E72247E317D7FE984385479316F7
:1030F000E70063D506063EC63247631FF704B717DD
:103100000240D843B706C1FFFD16D8C3D843D8C381
:10311000D84313670740D8C3D843758FD8C3D84363
:10312000B7062900558FD8C39843B7060001558FBD
:1031300098C3984393166700E3DD06FED843B7169D
:103140000240719BD8C3D84313672700D8C32147D7
:10315000DC42B18BE39EE7FE4101828002C669BF7B
:10316000371702405C43411122C406C63754E801B8
:10317000B18B9146130404806382D70637147A001A
:10318000A14613040420639BD70440435C4341677A
:1031900049803D88F98F090445476313E400494499
:1031A00081EFB747024083A70780C18BA5C7B71738
:1031B0007A00938707200DA0B7170240DC4337073A
:1031C000C000F98F6391E704212E8547631DF50246
:1031D000B727F400938707403304F402B71702407F
:1031E000DC431757020013076793B2409183BD8BEE
:1031F000BA979C233354F40097D7FF1F23AA87E67E
:10320000224441018280B7170240DC431397E70054
:10321000E35F07F8B7173D009387079075BF01A0DC
:10322000B707EFBE37E700E0938707083CC701A068
:10323000EF60B27273002030B7F7FF1F83A7877E5D
:1032400013D787001CA118B113D70701E1833CB144
:1032500038A1B7F7FF1F83A7C77E5CA1A1835CB12C
:1032600082809C4513F7070113F8F70001C7D84186
:103270003368E8008E2113F7F50F39C318418146F2
:10328000854E3D4F930F800293028004214E33966A
:10329000DE00B3F8C50063111603939826003313BC
:1032A0001F011343F3FF3377E300B318180133E72B
:1032B000E8006390F70750C98506E39AC6FD18C178
:1032C0001307F00F6376B70454410146854E3D4F16
:1032D000930F800293028004214E130786003397D8
:1032E000EE00B3F8E50063111703931826003313BB
:1032F0001F011343F3FFB376D300B3181801B3E6ED
:10330000D800639CF70158C90506E318C6FD54C1EF
:103310008280E39357FA10C945B7E39757FE18C95F
:10332000E5B7B7170240D843B70640FFFD16758FC3
:10333000D8C3D8435A05598DC8C38280B7170240F5
:10334000238007020547238007029387070263064D
:10335000E50011476305E500828088A38280154758
:1033600098A38280B7170240D85309C51367170086
:10337000D8D38280799BEDBF371702401C53C98F89
:103380001CD38280B7170240985309C5A166558F98
:1033900098D38280E176FD16758FDDBFB7160240A7
:1033A000D842B757E8011146318B93870780630EE7
:1033B000C704B7177A002146938707206317C7040D
:1033C000DC42D842C166C983BD8B758F8907C5466B
:1033D0006393D700C94701EF3747024003270780AF
:1033E000418B59C337177A001307072029A8B7164E
:1033F0000240D8423706C000718F6312C7063727D4
:10340000F40013070740B387E7021CC137160240D8
:103410005842974602009386667111833D8B36971A
:103420001823B3D7E7005CC1584221831D8B369720
:10343000182333D7E70018C558422D831D8BBA9641
:1034400098229386C186B3D7E7005CC5584239837A
:103450000D8B36971823B3D7E7021CC98280D84258
:103460009316E700E3D006F837173D0013070790DF
:1034700059BFB7170240D84B81C5498FD8CB82803E
:103480001345F5FF798DC8CB8280B7170240984F5E
:1034900081C5498F98CF82801345F5FF798D88CFFC
:1034A0008280B7170240D84F81C5498FD8CF82801C
:1034B0001345F5FF798DC8CF828013575500854697
:1034C000B71702406317D7009C4333D5A70005897F
:1034D000828089466314D7009C53C5BFDC53F5B77F
:1034E00005458280B7770040984309C513670710E8
:1034F00098C382801377F7EFE5BFB737004003D753
:103500004780136707012392E7808280B737004026
:1035100003D74780C166BD16758F2392E7808280EE
:10352000B737004093870780962F9A2F131607010D
:103530004182E39BE6FEB737004093870780D62F92
:10354000DA2F131507014181E39BE6FE3737004070
:10355000130707800E2F162F93970601C183E39B55
:10356000D5FE630DF6003737004013070780522F52
:10357000562F139506014181E31BD6FEC2075D8DD0
:103580008280011106CE2AC68D3F3245B7370040F2
:10359000F24013570501239CE780239EA780056115
:1035A000B5B7011106CE2AC6893F3245B73700406C
:1035B000F240135705013D8B2394E7802396A780A3
:1035C0000561A9B737370040130707805E2393F7DB
:1035D0000702EDDF82801A29F577FD177D8FFE2126
:1035E000797122D426D206D6D98F1EA99625DE213E
:1035F0005A252A84D58FB625AE84D58FFD7693863D
:10360000369F758FD98F5EA55A29DE251377F7CFA0
:10361000D98F5EA96800EFF07FD8B7470140938744
:1036200007806316F404E2476545B3B5A7029040EE
:1036300081460A063385A702EF30D257930640062B
:103640003357D5021306F063120793574700B38729
:10365000D702B307F540920793872703637BF600F1
:103660004107B2501AA42254925445618280D24735
:1036700065BFB3D7D7025D8FEDB7896793870758CA
:103680001CC1B7070C00232205001CC5231605002A
:1036900082805E2589C50967D98F5EA5828079778A
:1036A0007D17F98FDDBF13F7F50F85471583B395A8
:1036B000B7006319F7009307C500984301CE4D8FFB
:1036C00098C38280894693074501E318D7FE930784
:1036D0000501E5B793C5F5FFF98D8CC3828093F59D
:1036E000F51F4EA182804A211375F51F828013F7C2
:1036F000F50F85461583B397B6006310D7025A2598
:103700000A21F98FA18105473317B700798DB337A7
:10371000F0003335A0007D8D828089466314D70088
:103720001A29F9BF5A29E9BF83A6018985471821BB
:10373000639EF6001C31639AD7023C21B7E600E095
:10374000BA96960793E707F82380F64050418546DE
:1037500093575700B396E60037E700E005C293871A
:1037600007048A073E9714C38280EDF33421B7E73C
:1037700000E0BA9796062380D740C9BF9387070613
:103780008A073E9714C30F100000828001A097D1D2
:10379000FF1F9381A10D17D100201301A18617856A
:1037A00002001305258897D5FF1F9385A58517D699
:1037B000FF1F1306A69263FAC5008322050023A00B
:1037C000550011059105E3EAC5FE1385018797159C
:1037D00000209385256B6377B50023200500110534
:1037E000E36DB5FEFD42739002BC8D427390428042
:1037F000930280087390023097D2FFFF9382C280B9
:1038000093E2320073905230EFF09F8797D2FFFF20
:10381000938202987390123473002030184183A76A
:1038200085FF6319B7001CC1FD5723AC05FE238F2C
:10383000F5FE8280232CF6FEC5BF411122C426C2AC
:103840003744024006C68324C420232604200F10D8
:10385000000009E9232694201545B24022449244F1
:10386000410182800347E5FF9307F00F6306F700ED
:10387000232694201145D5B7EF70E21E014523267B
:103880009420E1BF411126C24AC0B744024006C697
:1038900022C403A9C42023A604200F10000089E538
:1038A00023A62421154515A02A849717002083C735
:1038B00037152E856375F400894763EE8700B53FA1
:1038C000B747024023A627210D45B2402244924427
:1038D00002494101828083A785FF99E703C7E5FF7D
:1038E0009307F00F6308F700893FB747024023A60C
:1038F00027214DBF238F85FE1715002013050510C6
:10390000EF403208A16522854D24014523A62421DC
:103910006DBF9717002023A3070E8280C9C179715C
:1039200022D406D626D24AD04ECE01444147B3D740
:103930008540858BA5C31205314722953305E502E5
:10394000971700209387C71403A907008544B394F1
:103950008400C204C180BE892A990327090011C7C7
:10396000032549002EC60297B24531473304E402CD
:1039700083A709003E941C4489E7232009002322E1
:103980000900B2502254A58D02599254F2492E8555
:10399000456182800504E31CE4F88144DDB72E858F
:1039A000828041111397050122C406C626C24AC06F
:1039B00041872E84635F0700EF40120411C1B53DBB
:1039C000A1673D8C2285B2402244924402494101C4
:1039D0008280EDD9AA8701474146B356E440858AE3
:1039E0008DCE9207BA97B146B387D70297160020BB
:1039F0009386060A03A906008544B394E400C20432
:103A0000C1803E998327090003254900829723201E
:103A1000090023220900258C75B70507E31FC7FAA3
:103A20008144D5BF411126C2B747024006C622C411
:103A300083A4C72023A607200F100000971700209B
:103A400093870701DC531384818099C782971C40B8
:103A50003E9523A4A18039A097170020938787FE65
:103A60009C43EDF71C40374703001307D73FB3874C
:103A7000E70237A72600130737ECB240BA9723A412
:103A8000F180B747024023A6972008402244924481
:103A900041018280797126D2B747024006D622D4EE
:103AA0004AD04ECE52CC56CA5AC85EC662C483A40F
:103AB000C72023A607200F10000005E123A69720AA
:103AC0000945B250225492540259F249624AD24AEC
:103AD000424BB24B224C456182809717002093875E
:103AE00067F69C43BA8A368AB28B2E8BAA89829754
:103AF000971700209387C7F998433E890144B14640
:103B0000C147330CD40233068701104251E6C16528
:103B1000938505F04145EF60326605E19717002077
:103B2000938707F3DC5B81C7814511458297B747CF
:103B3000024023A697202D4569B797170020938749
:103B4000E7F0984331E79717002023A1A7F023005F
:103B50000500832709000547331787002326050042
:103B6000232475012311E50023225501E29723A0A8
:103B7000370123A2670123A4570163040A0023002D
:103B80008A00B747024023A6972001451DBF3E8704
:103B90005C47F5FF48C765BF0504E314F4F6B74773
:103BA000024023A69720214529BFB747024083A69C
:103BB000C72023A607200F10000017170020034777
:103BC00037E46373E502171600201306E6E71317C0
:103BD000150008423A9503570500D98D2310B5000A
:103BE00023A6D7200145828023A6D7200D458280B9
:103BF000B747024083A6C72023A607200F10000066
:103C0000171700200347D7DF6375E502171600205A
:103C1000130686E313171500084293C5F5FF3A957E
:103C200003570500F98D2310B50023A6D7200145C1
:103C3000828023A6D7200D458280011126CA3747EE
:103C4000024006CE22CC4AC84EC652C48324C720A6
:103C5000232607200F100000130705FF1377F70F27
:103C6000FD4763E6E70AB146B306D5029717002081
:103C7000938707E2984336971C43D1CB135A4500EC
:103C800005443D893315A4001314050141802E8994
:103C90005285A285EF40625EAA8929CDA285528510
:103CA000813F971700209387E7D99C438297971706
:103CB000002083D7E7DE338727032A848146130653
:103CC0000064B3B7270313050732B335E500BE958B
:103CD000EF30426EB3078500971600209386C6DB4F
:103CE0003E87D44263E4A70063E4D7003387D7401C
:103CF00023A4E900B747024023A697200145F240DC
:103D00006244D2444249B249224A05618280B7479F
:103D1000024023A697200945DDB701114AC8B747DD
:103D2000024006CE22CC26CA4EC603A9C72023A62F
:103D300007200F100000BD4763EAA704314733078F
:103D4000E502971700209387A7D49C43BA979C431A
:103D500095CF05443314A40042044180AE8401454C
:103D6000A285EF408251AA8911C5A2850145493536
:103D700023A49900B747024023A627210145F2401A
:103D80006244D2444249B24905618280B747024049
:103D900023A627210945E5B7797126D24ECEB7442F
:103DA000024006D622D44AD052CC56CA5AC85EC661
:103DB00083A9C42023A604200F1000009717002019
:103DC00083C717C4637AF50097170020938787C7C6
:103DD00083AB070063970B00B747024023A6372148
:103DE000A9A0171B0020130B2BCB832A4B00B7472E
:103DF00036FE938707C82E8A9715002083D545CABB
:103E0000BE9AB387C5022A8432898146B3B5C502FA
:103E100013850732B337F50013060064BE95EF3003
:103E2000625963F0AA0223A634210145B2502254FC
:103E300092540259F249624AD24A424BB24B45610E
:103E40008280829B9715002083D585C5B387250383
:103E5000AA84130600648146B3B52503138507328F
:103E6000B337F500BE95EF30E254B3079500BE843A
:103E700003274B0063E4A70063E4E700B384E74053
:103E8000D2852285EF40623F01C904C5B747024091
:103E900023A63721054559BF936504F0C205C181AA
:103EA0004145EF60722D19E997170020938747BAB3
:103EB000DC5B9DD3A2851145829739BF97170020FF
:103EC0009387C7B89C439DE39717002023A0A7B80A
:103ED00085472326050004C52311450123008500DD
:103EE000A300F5002322050055B7BA87D84775FF10
:103EF000C8C7F9BF79714ECEB747024006D622D463
:103F000026D24AD052CC56CA5AC85EC662C466C2CD
:103F10006AC083A9C72023A607200F10000035C15F
:103F200041443689B28A2E8AAA84B14C171B0020DC
:103F3000130B0BB6054D130C0003B30B94030327AF
:103F40000B005E971C43B9EF9375F400B315BD00E9
:103F500013554440C2055686C1811375F50F2D3D9A
:103F600031C183270B00DE9784C323A2470163047A
:103F7000090023008900B747024023A637210145E5
:103F800021A023A637210945B25022549254025948
:103F9000F249624AD24A424BB24B224C924C024DF9
:103FA000456182800504E31A84F9B747024023A6DD
:103FB00037212145D1BF011122CC26CA4AC84EC69D
:103FC000B747024006CE03A9C7202A84AE89B2842F
:103FD00023A607200F100000EFF01FDC2285CE85FE
:103FE000EF40A2292A8405C59715002083D545AB4B
:103FF000B3879502130600648146B3B59502138515
:104000000732B337F500BE95EF30C23A48C01335DA
:104010001400F2406244B747024023A62721D2444D
:104020004249B2490E0505618280011122CC4AC87D
:104030004EC6B747024006CE26CA83A9C7202A89A2
:104040002E8423A607200F100000EF400223AA842D
:1040500019C123110500A2854A85EFF07FB9971792
:10406000002083C7E799639B27019717002083D718
:10407000279D5D8C971700202394879CB7470240AB
:1040800023A63721014591E01945F2406244D2440C
:104090004249B24905618280011126CA4AC8B74423
:1040A000024006CE22CC4EC603A9C42023A604207B
:1040B0000F1000009307F00263E8A704B147330430
:1040C000F502971900209389A99C83A70900A2975C
:1040D0009C439DCB9377F5008545B395F500C205CC
:1040E000C1811181993783A709000145A29723A0B7
:1040F000070023A2070023A62421F2406244D244F1
:104100004249B24905618280B747024023A6272170
:104110000945E5B7411126C206C622C4B747024089
:1041200083A4C72023A607200F100000EF40E2144D
:1041300019E90145B2402244B747024023A697201F
:10414000924441018280971700209387A78F9C4358
:104150000045829797170020938707946368A4020D
:10416000D843B74636FE938606C83305A440369733
:10417000E371E5FC13070064B335E50203D687005D
:1041800081463305E502EF30E2226DB7D8433A9419
:10419000C1BF411106C69717002023ADA78E029517
:1041A000B2409717002023A9A786014541018280CC
:1041B000914763E9B7008A0597170020938707871F
:1041C000BE9588C182804111514681451715002056
:1041D0001305C58506C69717002023A907869717DC
:1041E000002023A9078A9717002023AD0784EF40FA
:1041F000A211130680028145171500201305458082
:10420000EF408210EFF031399717002083C7978570
:1042100013D527008D8B3E958D473305F5028545D7
:1042200039051375F50F97070020238CA77C994754
:104230003305F50213050524EF60027417170020FB
:104240002328A78449CD9947170600200346667B9B
:104250003306F602814513060624EF40E20A97175B
:1042600000209387E7829C43938707241707002049
:10427000232CF77A170700200347A7780A07BA9775
:10428000170700202322F77CEFF0AFE855219707AE
:1042900000209387677994439707002083C7577658
:1042A00013972700369717F6FFFF1306666710C3AC
:1042B000138717001377F70F0A07369717F6FFFFD4
:1042C0001306666E10C313873700890793F7F70F3D
:1042D0008A0797050020A385E572B69790C3B24080
:1042E000410182809707002083C79771170700203C
:1042F0000347277163F3E702170700201307C7720C
:1043000018439386170017060020A30BD66E9396CA
:104310002700369708C33E8582809307F00FE5BFDC
:104320001C41638D071241777D8FB70600208947B6
:104330006317D7120357450063030712411122C4C4
:1043400019462A849305F00F610506C6EF40220E38
:1043500005478D47630FE50E1C4491C7185C9947CC
:104360006DCB585C7DC713060004814517050020FE
:104370001305056EEF30527913060004A285170568
:1043800000201305E56CEF309271170700200357EA
:10439000E76C970700209387A76B19E713070010B6
:1043A00097060020239CE66A170700200347276B27
:1043B00011E70547970600202383E66A17070020C8
:1043C0000357076A11E76D4797060020239AE668AE
:1043D000170700200347B76811E715479706002025
:1043E000A38FE666170700200347A76711E7054775
:1043F000970600202387E6661707002003477766A5
:1044000019E703C7F70097060020A38CE664170797
:1044100000200347276511E72547970600202383DF
:10442000E6640347640119E71307C00397060020F9
:10443000238BE662DC5791C782979707002023956C
:10444000A75CFD5717170020A306F7A0EFF0BFD712
:104450008147B24022443E854101828089473E85A2
:10446000828001114EC6970900209389E96283A7D3
:10447000090006CE22CC26CA4AC852C48297130924
:104480000064B335250303DA89008146528633057B
:104490002503EF2032729707002093876756804FDD
:1044A000AA8401456306940233858440636E9400B8
:1044B00003A5490052868146B335A9023305A902F6
:1044C000EF20526F018D26959707002023A6975461
:1044D000F2406244D2444249B249224A0561828094
:1044E000011122CC0A852E8441469735020093851E
:1044F000E53C06CEEFB03FC8180806043A940355D1
:1045000004FF9707002083D7C759F2406244AA9757
:1045100037450F00130505243355F50205618280E8
:104520009707002083D7E75751471D45637CF70263
:10453000794719456378F70213072003154563731C
:10454000F7021307B0041145637EF7001307400616
:104550000D456379F7001307600909456374F70097
:1045600013B5B70F8280011122CC06CE2A842EC645
:10457000EFF04FCBB245F240818D33A5A5022295D5
:1045800062441375F50F05618280011122CC06CEBD
:104590002A842EC6EFF00FC9B245F240818D33A5B3
:1045A000A502229562444205418105618280011184
:1045B00022CC06CE2A842EC6EFF0CFC6B245F240FA
:1045C000818D33B5A50222956244056182809707EB
:1045D000002023ABA74C8280970700209387474792
:1045E000D85739CB411122C426C206C6BE840297D1
:1045F00017070020035747412A8415CBBA876373F6
:10460000A700AA87C207C183BA866373E400A286A3
:10461000C206C182958F5147635BF7009C5891C3D6
:104620008297EF90617797070020239F873CB240E5
:104630002244924441018280828097070020938720
:1046400027419C5B011106CEAA8581C72AC68297A5
:10465000B245C9CD9C410545D9C7DC41C9C783D7FF
:104660008500D1C383D7A500BDCF83C7C50081CF47
:104670009707002083C7173F13F737008983BA973E
:1046800009476342F7064146170500201305C54058
:10469000EF30F24097070020938707409C431707AD
:1046A00000202321F73A9707002083C7D73B8DE7E7
:1046B00093078057170500200355853E3305F50203
:1046C00037460F001306062481468145EF20924E9F
:1046D00097070020A389A738170500001305A5D860
:1046E000EFF03FAB0145F240056182809707002063
:1046F00023A60732974702009387A72617070020B3
:10470000232CF7387D579707002023A9E738B78770
:104710003200938727A19706002023A3F638970736
:10472000002023810738B747024023A4E7269DB71E
:10473000011122CC1704002013048431084406CE52
:1047400026CA4AC801E90545F2406244D2444249BA
:10475000056182801C5CE5DB585C75D7700085457F
:1047600082971844B247E300F7FE9305E00417056B
:1047700000200355A52EEF602220170700202321DB
:10478000A72A71D1170600200356462D9305F00F76
:10479000EF309237814417090020130969269707E3
:1047A000002083C7C72B0326090263CFF40032859C
:1047B000EF60622B01459707002023A30726970788
:1047C000002023A1072649B79705002083D5052996
:1047D000B38795020844585C898185043E9508C2D8
:1047E000029775BF011156C2970A0020938A4A2684
:1047F00083A78A0022CC4AC84EC606CE26CA52C417
:104800005AC0AA892E8432896388072003A78A03A5
:10481000630307141307F01F6361A71497040020B4
:104820009384041E03AA040263130A0A9565938500
:1048300015E01705002003556522EF60E213970786
:10484000002023AFA71C2A866307051083A78A03CD
:1048500003A58A009705002083D54520898182978A
:1048600083A78A0003AA040217070020232CF71A43
:1048700089476398F908C147631FF40C9705002026
:1048800083D5C51D938505FC9147B3C5F5028A05FF
:10489000D29503C725009307A005631AF70A83D7AB
:1048A00005006396370B4A8522869105EF30321F4B
:1048B0009C505285639D47130145F2406244D244A7
:1048C0004249B249224A924A024B05618280D8503D
:1048D000E380E7FA9565938525E0170500200355E9
:1048E000E517EF6062092A8A3DC52A8683A78A03F5
:1048F00003A58A009705002083D5451689818297F4
:1049000085BF8D47639DF900C1476316F404970581
:10491000002083D5A514938545FDF19995BF914756
:10492000639AF900631934039705002083D50513B2
:10493000A115E5B793070010639FF900A14763EC49
:1049400087009705002083D56511C115F9B79C50E4
:1049500052856390470D29458DB71D6A568B637B41
:104960004509130A05E01947334AEA0217070020F0
:104970000357C70E970A0020938A8A08330AEA026F
:104980003E9A83A74A026395470183A40A028DE4F5
:104990009305E004170500200355450CEF50D27D28
:1049A000AA8455D983278B039705002083D5050B4F
:1049B0002A8689815285829791451307A0058981AE
:1049C00093972500A69783C62700639FE60283D6A8
:1049D00007006398360385058A052286A6954A85D1
:1049E000EF30F20B83A70A02E38897EC2685EF608D
:1049F0008207D9B521677917E36FA7F4330A4541D8
:104A0000B5B783C5370065BF83A70A02E38597F46E
:104A10002685EF60420581B797070020938747FE00
:104A20008C5395D991479306A00589831397270046
:104A30002E9703462700E310D6F203560700631AA9
:104A4000360185078A072286BE954A85EF303205F2
:104A5000A5B583473700D1BF97070020938747FF4D
:104A6000984729C7DC5FB9C305476311E5044111C5
:104A700022C4170400201304A4F8105006C61DC257
:104A800048509705002083D565FD8981829708509D
:104A9000EF50727D9707002023A407F897070020A6
:104AA00023A207F8B2402244410182808280011192
:104AB000170700201307C7F94EC68329870022CCA9
:104AC00026CA4AC806CE52C456C2AA842E84328947
:104AD000638509205C5FBA8A99EB2945F2406244FC
:104AE000D2444249B249224A924A056182801C5FFF
:104AF000EDD79307F01F63E6A70E9709002093896F
:104B000029F083A70902A1CB03A58A0083A7490244
:104B10006391A7068947639FF406C147E31FF4FA30
:104B200017050020035585F39147130505FC334510
:104B3000F5029317250003A509022286CA853E9532
:104B40009307A0052301F500231095001105EF3010
:104B50000275014561B79305E00417050020035570
:104B6000E5EFEF5072619707002023ABA7EA49FDFC
:104B7000ADB783A78A0303A609029705002083D552
:104B8000E5ED8981829783A78A0017070020232BF0
:104B9000F7E849B78D47639EF400C147E31FF4F27D
:104BA00017050020035585EB130545FD9377C5FFD9
:104BB00059B79147639AF400E31194F21705002066
:104BC0000355C5E92115DDB793070010E397F4F00D
:104BD000A147E3E487F017050020035525E84115B8
:104BE000F1B79D676379F506930705E01947B3C7E9
:104BF000E70217070020035767E6170A0020130A89
:104C00002AE0B387E702BE9983270A02A1CF832750
:104C10004A026397370703250A0291461308A00545
:104C20009305F00F93D72600139727002A97034682
:104C30002700631D06078358070003463700639368
:104C40009806B306D64063CD860485078A07228678
:104C5000CA853E95EDBD21677917E360A7E8B307E4
:104C6000F54041BF9305E00417050020035505DF1B
:104C7000EF5092509707002023A4A7DA49F9B1BD5D
:104C800083A78A0303260A029705002083D505DD42
:104C900089814E8582979707002023A537D9A5BF24
:104CA0002310B70093160601C182ADBFB3858600FD
:104CB00017060020035686DA9105130606FCE3FE6C
:104CC000C5E013063400719A1106B296230107015C
:104CD00023109700A301D7008DBF9707002093876B
:104CE00027D29453BE89A9C203A50902914613088D
:104CF000A0059305F00F93D72600139727002A9756
:104D0000034627006316060583580700034637004D
:104D100063989800B306D640E3D986F22310B70013
:104D200093160601C182C1BF8357C7001705002033
:104D30000345E5D29305E0043305F50242054181C0
:104D4000EF5092439707002023ACA7CC51FD71B3DD
:104D500017060020035686D09705002083C525D06E
:104D6000B385C502338686001106E3E8C5D691BF38
:104D70000145828083C705002300F50083D7250005
:104D8000A300F50083D72500A1832301F50083C785
:104D90004500A301F5001145828023A0018A23AEBE
:104DA000018882801DCD411126C206C622C4AA8474
:104DB00001459DC12E842285414697350200938589
:104DC000E5D7EF30C24D83C7040005452306F40044
:104DD00083C71400A306F400B24022449244410168
:104DE000828001458280011122CC26CA06CE094765
:104DF000AA8432846381E50441468147639BC500F0
:104E0000638FE6006397B6000DA841478147638E24
:104E1000E600F2406244D2443E85056182808A8584
:104E20002285493741468A8519A88A85A53F41468A
:104E30008A85228531A0E39AB6FC2E86A285268536
:104E4000EF300257AA87F1B723AEA188828023A052
:104E5000A18A8280011122CC0354650006CE26CAA5
:104E60004AC84EC641C083298500AE842A8803C93A
:104E70000900814713178901618763550702B1470C
:104E8000054563FA87045114420403552800418004
:104E900033878900A2864E868545EFA02012B3375E
:104EA000A00085077D141355690042040589137914
:104EB000F90341802380F400A380A400238124010E
:104EC00023928400014719C01387190098C4094729
:104ED0006383E7000145F2406244D2444249B2494B
:104EE000056182800545C5BFC167F917630AF502F0
:104EF000D94763F7B702011122CC2EC606CE2A8409
:104F0000EF702079B2456368B50022856244F240B3
:104F100005616F90200CF240624405450561828076
:104F200005458280C167F9176314F5006F706076DC
:104F3000411106C6EF80507911E15D45B240410153
:104F4000828091476394F502834705002300F600B1
:104F50008347250003471500A207D98F2311F600C8
:104F60008347350001452302F60082801145828087
:104F70004111814522C426C206C6AA84B92B2A84BF
:104F800001E99387C1899C4381C7F94526858297AA
:104F90002285B240224492444101828039714ED62A
:104FA00056D25AD006DE22DC26DA4AD852D4AA8A51
:104FB0002E8BB28951EB36C6B5379145EF70E07D47
:104FC000AA844D493DC5B246054A238034010544B3
:104FD000630A0B00B68513851400029B05051314A4
:104FE00005014180E20993D9894163D30902C14592
:104FF0005685EF80307B654905E933868400A285BC
:105000002685EF90B04F2A8905E1310442044180A2
:1050100091472C085685231CF10026CE231D8100C4
:10502000EF8090062A8911C563050A002685EF5096
:105030009223F25062544A85D2544259B259225AAC
:10504000925A025B21618280BA84014ABDBF01117C
:1050500022CC26CA4AC84EC606CE2A893284B689D0
:10506000353FAA8405E19387018A9C4381CF054798
:105070006317E40003C4090005041374F40FA28548
:105080004A858297F240624426854249D244B24919
:1050900005618280AE86014705469705000093852D
:1050A000A5CD75B783D705002300F50083D705008C
:1050B000A183A300F5000945828083D70500230062
:1050C000F50083D70500A183A300F50083D7250051
:1050D0002301F50083D72500A183A301F500114525
:1050E000828083D705002300F50083D70500A183C4
:1050F000A300F50083D725002301F50083D7250001
:10510000A183A301F50083C755002302F50083C7DF
:105110006500A302F50003D585001905420541810C
:10512000828083D705002300F50083D70500A18383
:10513000A300F5000945828083D705002300F50010
:1051400083D70500A183A300F50083D725002301A1
:10515000F50083D72500A183A301F50011458280C6
:1051600083D705002300F50083D70500A183A300A2
:10517000F50003D52500090542054181828083D7CA
:1051800005002300F50083D70500A183A300F500E7
:1051900083D725002301F50083D72500A183A30130
:1051A000F50003D54500110542054181828083C782
:1051B00005002300F5000545828083D705004111D5
:1051C00022C406C62300F50083D705002E841105EE
:1051D000A183A30EF5FE83D725009505230FF5FEC9
:1051E00083D7D5FFA183A30FF5FE03C6F5FFEF30EC
:1051F000020B03454400B240224411054101828064
:105200008947639CF5008347150003470500014566
:10521000A207D98F2310F60082801145828003D720
:105220000500D94763FFE702011122CC06CE2EC646
:105230002A84EF700046B24683D70600636EF500FD
:1052400022856244F2400147094697050000938594
:10525000A5E505616FF09FD4F24062440945056100
:1052600082800945828091479DC583460500FD15D2
:10527000C2058547C1816392F60213D725008D8947
:10528000914791E9914701CB05052301D6002310F1
:10529000E60048C281473E85828009479147E39CEA
:1052A000E6FEC94733D7F502B3F5F502D1BFAE86A6
:1052B0000147114697050000938565E06FF01FCE0A
:1052C00003C745008947631BF702011122CC2A84DA
:1052D000C84506CEAE86014719C52EC69D45EF507E
:1052E0009208B2462A8722856244F2401946970501
:1052F0000000938545DF05616FF05FCA0945828034
:1053000099E1114582808347050005472311F60086
:10531000E379F7FEFD1593F5F50F33D7F502B38763
:10532000E702E390F5FE050548C22310E6000145BB
:10533000828083C745000947AE866385E700414701
:10534000639AE7000147214697050000938525E70A
:105350006FF0DFC4094582802310B60091E101455A
:1053600048C201458280AE86014729469705000064
:10537000938565DB6FF09FC2AE8601473146970586
:1053800000009385A5DB6FF07FC191479DC5034762
:1053900005008D46914763F2E602FD15C205C18105
:1053A000B3C6E5023308D70263990501050523104A
:1053B000D6002311E60048C281473E85828083C71C
:1053C00045000947AE866385E7004147639AE700D9
:1053D0000147414697050000938565DE6FF01FBCCD
:1053E00009458280B335B0001395250082800111F4
:1053F00022CC26CA06CE03C785008547AA842E8400
:1054000049466311F702EFF0FFB1835724004915B5
:105410001306200963C8A700F2406244D24409453C
:10542000056182800347940085476314F700136683
:105430000604484011C58D4532C6EF50C27232464F
:10544000A2866244F2402A872685D244970500004E
:10545000938545D105616FF07FB4011122CC2A8478
:10546000884506CEAE8611C52EC69545EF50A26F73
:10547000B2462A8722856244F240594697050000C9
:10548000938525D005616FF07FB1B335B0001395DA
:1054900025008280AE86014761469705000093850E
:1054A00045D16FF0BFAF8547114563F4D7028347FD
:1054B000160083450600A207CD8F2310F7009387BF
:1054C000E6FF2311F70089476386F600090650C3FB
:1054D0000145828023220700E5BF014781467946C6
:1054E00081456FF0BFAB011106CE2EC6EF80D019FB
:1054F00001C9B245F2400355250005616FC0904ACD
:10550000F240494505618280A386018C2386018C87
:1055100023AA018A23AC018A23AE018A23A0018C2D
:1055200023A8018A23A6018A97F7FF1F9387075AAA
:10553000930640382391D702F1761307400B9386E8
:1055400006B82391E7002392D70211679D46130600
:1055500000059305000A1305007D2392E7002393BD
:10556000D70241478546130810F82395E700239694
:10557000E7002399E700239AE700239BE700239C99
:10558000E7002394E7022396070323900700239361
:10559000B7002394B7002397C7002398C700239D23
:1055A000A700239E0700239F07002390070223954F
:1055B000D702239707021308F007239807022392C4
:1055C000E7042393E704239FE7042390E70623914E
:1055D000E7062392E706239907031307C01C239AC3
:1055E000D702239BD702239C0702239D0702239EF9
:1055F0000702239F0702239007042391D7042394D3
:105600000704239507042396D7042397C7042398F8
:10561000C7042399A704239A0704239B0704239C08
:105620000704239DC704239EC7042393A70623943E
:10563000070623950706239607062397B7062398A0
:10564000B70623990706239AE7065147239DE706E5
:105650007D57239B0706239C0706239ED706239F7F
:10566000070623900708239107082392E708828002
:10567000011126CAAA84214522CC06CE2E8432C628
:1056800036C43AC2EF2092311DC9A24612473246B3
:10569000930700FD2300F5009947A300950023011F
:1056A000F5002303D500A303E5002312C500AA8556
:1056B00022856244F240D24405616FE0AF9CF24023
:1056C0006244D2440561828023AAA18A828023ACED
:1056D000A18A828023AEA18A828023A0A18C8280AD
:1056E000011122CC4AC806CE26CA2A890144B30435
:1056F00089006368B400F2406244D24442490561C3
:1057000082802EC6EFE00FB293170501C183A183FB
:10571000B2452380F4009307140093F7F70F850434
:1057200063F9B700CA9709042380A7001374F40F24
:105730007DBF3E847DBFC16717F5FF1F03556537E9
:10574000FD176304F502411117F6FF1F0346464C8F
:105750009385418C06C6EF806055B240FD5717F720
:10576000FF1F2318F73441018280828009C9251563
:105770001375F50F1335850E13451500828001450D
:10578000828023900500D1C6797122D426D24ECED4
:1057900052CC5AC806D64AD056CA5EC63684328A19
:1057A000AE892A8B814463F44407B307940083C70E
:1057B0000700138914004209939A070193DA0A013A
:1057C0001359090163850A04CA976342FA04B307AF
:1057D000240183CB07005E85EFF05FF90DC9938745
:1057E000FAFF2390F90063906B03130519002295CB
:1057F000B250225492540259F249624AD24A424B60
:10580000B24B45618280D694C204C18069BF014514
:10581000C5B701458280411126C2AE8422C497F7E4
:10582000FF1F23AFC72897F7FF1F23A9B72897F7B4
:10583000FF1F23A3A7282A8441469305F00F26853E
:105840004AC006C60549EF20923E6310250597F72A
:10585000FF1F9387A725884BC145EFF07FE841469E
:105860009305F00F2285EF20923C85446317950243
:10587000224497F7FF1F93876723B240924402495F
:10588000C847C14541016FF0BFE5414681452685C6
:10589000EF20F239E31525FD5DBF414681452285A4
:1058A000EF20F238E30695FCB240224492440249CC
:1058B00041018280411122C426C22E84AA8413068B
:1058C0000002814517F5FF1F1305451E06C6EF2090
:1058D000B22397F7FF1FA38C971C97F7FF1F238B0B
:1058E0008732EFC0700E854719C181474945B240E4
:1058F000224417F7FF1F230BF71A924441018280BD
:10590000814781CD19C98547631BF50083C75500C1
:1059100093E707FCA382F50085473E85828089478F
:105920006317F50083C7550093F7F703E5B70D47F5
:105930008547E314E5FE03C755001377F7031367A4
:105940000704A382E500D1BF81478DC105C103C70C
:1059500055009306000C85471377070C6308D700A2
:10596000930600048D476303D70089473E858280F4
:10597000411122C4005D06C626C21DC0AA8408507B
:1059800019C1EF50420E485019C1EF50C20D0854D2
:1059900019C1EF50420D2285EF50E20C23AC0402F6
:1059A000B240224492444101828009ED97F7FF1FE3
:1059B00083C7E70F17F5FF1F1305C51081CB1385AC
:1059C000418A828017F5FF1F1305C50F828017F5E6
:1059D000FF1F0345C50D828097F7FF1F9387070DB3
:1059E000C847828097F7FF1F9387470C884B8280B8
:1059F00097F7FF1F9387870BDC4B8843828097F7CD
:105A0000FF1F9387A70AD84B1C4385071CC317F5B4
:105A1000FF1F0345D5099307F00F6305F500916556
:105A20006FE0AF988280011122CC06CE2E8432C660
:105A3000EF80C0559147B245631FF5009387018CF5
:105A40009C438DC303A30700630E030022856244B9
:105A5000F240056102839387818B9C4381C703A336
:105A60004700DDB7F24062440545056182800111BF
:105A700022CC2A840355450006CE26CA4AC84EC603
:105A8000EF20D27E3DC52A89834405008349C500A5
:105A9000EFF01FEE4A85EF80D00803554400EF80F9
:105AA000A04A83C7C18CB1CB6399970483C5D18CBD
:105AB0002685EFF05FA319E12386018C035544008E
:105AC000EF80C04C9147631FF5000357440097F7E0
:105AD000FF1F83D707FE6317F700FD5717F7FF1F58
